:100000000C942A000C943F000C943F000C943F0089
:100010000C943F000C943F000C943F000C943F0064
:100020000C943F000C943F000C943F000C943F0054
:100030000C943F000C943F000C943F000C943F0044
:100040000C943F000C943F000C943F000C943F0034
:100050000C943F0011241FBECFE5D8E0DEBFCDBF1A
:1000600010E0A0E6B0E0E0E8F8E002C005900D92F4
:10007000AE3CB107D9F70E94E5020C943E040C9403
:100080000000442321F04F3F09F44BC0089568302D
:10009000C0F5813091F028F08230D9F0833029F119
:1000A00008952AB381E090E002C0880F991F6A95F5
:1000B000E2F7809582238ABB089527B381E090E020
:1000C00002C0880F991F6A95E2F78095822387BB4B
:1000D000089524B381E090E002C0880F991F6A95CB
:1000E000E2F78095822384BB089521B381E090E0FC
:1000F00002C0880F991F6A95E2F78095822381BB21
:100100000895813041F028F0823039F0833039F0A1
:1001100008951ABA089517BA089514BA089511BA2D
:1001200008956830A0F5813089F028F08230C9F058
:10013000833011F108952AB381E090E002C0880F66
:10014000991F6A95E2F7822B8ABB089527B381E055
:1001500090E002C0880F991F6A95E2F7822B87BB57
:10016000089524B381E090E002C0880F991F6A953A
:10017000E2F7822B84BB089521B381E090E002C0B6
:10018000880F991F6A95E2F7822B81BB0895813011
:1001900049F028F0823049F0833051F008958FEF14
:1001A0008ABB08958FEF87BB08958FEF84BB0895B6
:1001B0008FEF81BB0895CF93DF93C82FD62F4423B1
:1001C00021F04F3F09F452C0A1C06830D8F54FEF7D
:1001D0000E944100C13091F028F0C230D9F0C33004
:1001E00029F194C02BB381E090E002C0880F991FE1
:1001F000DA95E2F7809582238BBB88C028B381E033
:1002000090E002C0880F991FDA95E2F7809582236B
:1002100088BB7CC025B381E090E002C0880F991FA5
:10022000DA95E2F78095822385BB70C022B381E026
:1002300090E002C0880F991FDA95E2F7809582233B
:1002400082BB64C04FEF68E00E944100C13041F0C2
:1002500028F0C23039F0C33039F058C01BBA56C04C
:1002600018BA54C015BA52C012BA50C06830B8F5A6
:100270004FEF0E944100C13089F028F0C230C9F030
:10028000C33011F143C02BB381E090E002C0880F6E
:10029000991FDA95E2F7822B8BBB38C028B381E037
:1002A00090E002C0880F991FDA95E2F7822B88BB95
:1002B0002DC025B381E090E002C0880F991FDA9528
:1002C000E2F7822B85BB22C022B381E090E002C01E
:1002D000880F991FDA95E2F7822B82BB17C04FEF88
:1002E00068E00E944100C13049F028F0C23049F076
:1002F000C33051F00BC08FEF8BBB08C08FEF88BBB2
:1003000005C08FEF85BB02C08FEF82BBDF91CF911D
:100310000895CF93DF93C82FD62F6830B8F54FEFED
:100320000E944100C13089F028F0C230C9F0C330CA
:1003300011F147C02BB381E090E002C0880F991FF4
:10034000DA95E2F782278BBB3CC028B381E090E0CE
:1003500002C0880F991FDA95E2F7822788BB31C067
:1003600025B381E090E002C0880F991FDA95E2F78B
:10037000822785BB26C022B381E090E002C0880FAF
:10038000991FDA95E2F7822782BB1BC04FEF68E026
:100390000E944100C13051F028F0C23059F0C33002
:1003A00069F00FC08BB380958BBB0BC088B3809571
:1003B00088BB07C085B3809585BB03C082B3809599
:1003C00082BBDF91CF910895CF93C82F40E061E0C9
:1003D00081E00E94DB0040E062E081E00E94DB00FF
:1003E00040E063E081E00E94DB008BB39C2F907FB4
:1003F0008F70892B8BBB4FEF63E081E00E94DB00A5
:100400008FE99FE00197F1F700C0000040E063E052
:1004100081E00E94DB002BB330E1C39FC0011124B7
:10042000922F9F70892B8BBB4FEF63E081E00E947E
:10043000DB008FE99FE00197F1F700C0000040E08A
:1004400063E081E00E94DB008FE19EE40197F1F719
:1004500000C00000CF9108954FEF61E081E00E945D
:1004600041004FEF62E081E00E9441004FEF63E006
:1004700081E00E9441004FEF64E080E00E94410073
:100480004FEF65E080E00E9441004FEF66E080E0C2
:100490000E9441004FEF67E080E00E9441002FEF93
:1004A00081EE94E0215080409040E1F700C00000D0
:1004B00083E30E94E40182E30E94E40188E20E9457
:1004C000E40181E00E94E40182E00E94E40186E010
:1004D0000E94E4018CE00E94E4010895CF93C82FAC
:1004E0004FEF61E081E00E94DB0040E062E081E0EC
:1004F0000E94DB0040E063E081E00E94DB008BB300
:100500009C2F907F8F70892B8BBB4FEF63E081E036
:100510000E94DB008FE99FE00197F1F700C0000027
:1005200040E063E081E00E94DB002BB330E1C39F39
:10053000C0011124922F9F70892B8BBB4FEF63E07A
:1005400081E00E94DB008FE99FE00197F1F700C096
:10055000000040E063E081E00E94DB008FE19EE468
:100560000197F1F700C00000CF9108950F931F93FA
:10057000CF93FC018081882359F08F01C0E00E9455
:100580006E02CF5FF801EC0FF11D80818111F7CF72
:10059000CF911F910F910895CF93DF9300D0CDB7E6
:1005A000DEB790E8998390EC9A83FE01E80FF11D85
:1005B0008181860F0E94E4010F900F90DF91CF910F
:1005C000089581E00E94E4010895CF93DF93CDB7B1
:1005D000DEB7CD56D1090FB6F894DEBF0FBECDBF42
:1005E0008BE0E0E6F0E0DE01119601900D928A9535
:1005F000E1F780E1EBE6F0E0DE011C9601900D9260
:100600008A95E1F78FE0EBE7F0E0DE015C96019080
:100610000D928A95E1F78DE0EAE8F0E0DE019B9625
:1006200001900D928A95E1F78AE0E7E9F0E0DE01BA
:10063000D89601900D928A95E1F78AE1E1EAF0E01F
:10064000DE01AE5BBF4F01900D928A95E1F786E027
:10065000EBEBF0E0DE01A45ABF4F01900D928A95BA
:10066000E1F786E0E1ECF0E0DE01AE59BF4F01902A
:100670000D928A95E1F786E0E7ECF0E0DE01A859FB
:10068000BF4F01900D928A95E1F740E063E080E072
:100690000E94DB000E9421040E942C026E012BE0CC
:1006A000C20ED11C0E94E102CE010C960E94B6023D
:1006B00080EC0E94E401CE0101967C0110E081E013
:1006C0000E943904082F8AE20E946E0263E080E0F3
:1006D0000E9489019FEFE0E7F2E09150E040F04096
:1006E000E1F700C0000063E080E00E9489012FEF85
:1006F00080E792E0215080409040E1F700C0000088
:10070000F70181917F0108131F5FEC14FD04B9F616
:10071000112309F487C00E94E102CE010C960E94C9
:10072000B60260E081E00E94CC02CE014C960E94AD
:10073000B60216E063E080E00E948901FFEF21EE3F
:1007400084E0F15020408040E1F700C000001150EB
:1007500089F79FEFE3EDF0E39150E040F040E1F7DF
:1007600000C000009FCF81E00E943904082F0E9442
:10077000E102802F0E946E02013669F462E082E09D
:100780000E94890180EC0E94E401CE01845A9F4FAF
:100790000E94B602E8CF023669F467E082E00E9468
:1007A000890180EC0E94E401CE018E599F4F0E9486
:1007B000B602D9CF033669F463E083E00E94890171
:1007C00080EC0E94E401CE0188599F4F0E94B6023E
:1007D000CACF80EC0E94E401CE018E5B9F4F0E9445
:1007E000B6022FEF83ED90E3215080409040E1F777
:1007F00000C0000010E088E10E94E4011F5F612F4B
:1008000080E00E94CC02802F0E946E02EFEFF5EA9A
:100810002EE0E150F0402040E1F700C00000193028
:1008200051F7A1CF0E94E102CE018B960E94B60241
:1008300060E081E00E94CC02CE01C8960E94B60220
:1008400092CF40E064E081E00E94410040E065E03A
:1008500081E00E9441004FEF66E081E00E9441008C
:1008600040E067E081E00E9441001DB81DB86E9A2B
:1008700008958FB9779BFECF8FB10895F894FFCF7D
:1008800061686D65645F6174656600456E7465726C
:1008900020596F757220506173730057726F6E67C5
:1008A0002050617373776F72640057656C636F6D6E
:1008B0006520486F6D65004D722E2041686D65643E
:1008C000004E6F20737563682061204C4544206F93
:1008D00072204163747561746F72004C454420301E
:0E08E000004C45442031004C454420320000BD
:00000001FF
