:100000000C9434000C943E000C943E000C943E0082
:100010000C943E000C943E000C943E000C943E0068
:100020000C943E000C943E000C943E000C943E0058
:100030000C943E000C943E000C943E000C943E0048
:100040000C943E000C943E000C943E000C943E0038
:100050000C943E000C943E000C943E000C943E0028
:100060000C943E000C943E0011241FBECFEFD8E04C
:10007000DEBFCDBF0E9494010C94ED010C940000F2
:10008000442321F04F3F09F44EC008956830D0F565
:100090008130A1F028F08230E9F0833039F1089501
:1000A000E0E0F0E0208181E090E002C0880F991F3D
:1000B0006A95E2F7809582238083089524B181E0D8
:1000C00090E002C0880F991F6A95E2F7809582231D
:1000D00084B9089527B181E090E002C0880F991F8C
:1000E0006A95E2F78095822387B908952AB181E065
:1000F00090E002C0880F991F6A95E2F780958223ED
:100100008AB90895813049F028F0823041F0833077
:1001100041F0089510920000089514B8089517B89A
:1001200008951AB808956830B0F5813099F028F034
:100130008230D9F0833021F10895E0E0F0E02081B1
:1001400081E090E002C0880F991F6A95E2F7822B48
:100150008083089524B181E090E002C0880F991F48
:100160006A95E2F7822B84B9089527B181E090E087
:1001700002C0880F991F6A95E2F7822B87B908950C
:100180002AB181E090E002C0880F991F6A95E2F7DA
:10019000822B8AB90895813051F028F0823051F0D5
:1001A000833059F008958FEF8093000008958FEF0A
:1001B00084B908958FEF87B908958FEF8AB90895AC
:1001C000CF93DF93C82FD62F442321F04F3F09F45C
:1001D00055C0A7C06830E8F54FEF0E944000C1301D
:1001E000A1F028F0C230E9F0C33039F19AC0E0E064
:1001F000F0E0208181E090E002C0880F991FDA953D
:10020000E2F78095822380838CC025B181E090E065
:1002100002C0880F991FDA95E2F78095822385B98D
:1002200080C028B181E090E002C0880F991FDA9564
:10023000E2F78095822388B974C02BB181E090E009
:1002400002C0880F991FDA95E2F7809582238BB957
:1002500068C04FEF68E00E944000C13049F028F0CC
:10026000C23041F0C33041F05CC01092000059C070
:1002700015B857C018B855C01BB853C06830C8F57A
:100280004FEF0E944000C13099F028F0C230D9F001
:10029000C33021F146C0E0E0F0E0208181E090E051
:1002A00002C0880F991FDA95E2F7822B808339C04C
:1002B00025B181E090E002C0880F991FDA95E2F73E
:1002C000822B85B92EC028B181E090E002C0880F52
:1002D000991FDA95E2F7822B88B923C02BB181E010
:1002E00090E002C0880F991FDA95E2F7822B8BB954
:1002F00018C04FEF68E00E944000C13051F028F074
:10030000C23051F0C33059F00CC08FEF8093000021
:1003100008C08FEF85B905C08FEF88B902C08FEF95
:100320008BB9DF91CF91089562E081E00E94B50121
:1003300062E081E00E94CF010E94D9012FEF83ED9E
:1003400090E3215080409040E1F700C000000E94FF
:10035000E5010E94D3012FEF80E792E02150804019
:100360009040E1F700C00000F2CF4FEF0E94400044
:100370004FEF63E081E00E94400040E064E081E0F4
:100380000E9440004FEF65E081E00E9440001CBCED
:1003900083E18CBD1DBC8CB580648CBD089540E0AC
:1003A0000E94E00008958EBD0DB407FEFDCF8EB50E
:1003B00008955098519A88E18093C10086E2809315
:1003C000C20089E18093C4000895E0ECF0E08081F0
:0E03D0008823ECF78091C6000895F894FFCFC3
:00000001FF
